{
  "_format": "hh-sol-artifact-1",
  "contractName": "NFTMarketplace",
  "sourceName": "contracts/NFTMarketplace.sol",
  "abi": [
    {
      "inputs": [],
      "stateMutability": "nonpayable",
      "type": "constructor"
    },
    {
      "anonymous": false,
      "inputs": [
        {
          "indexed": true,
          "internalType": "uint256",
          "name": "itemId",
          "type": "uint256"
        },
        {
          "indexed": true,
          "internalType": "address",
          "name": "nftContract",
          "type": "address"
        },
        {
          "indexed": true,
          "internalType": "uint256",
          "name": "tokenId",
          "type": "uint256"
        },
        {
          "indexed": false,
          "internalType": "address payable",
          "name": "seller",
          "type": "address"
        },
        {
          "indexed": false,
          "internalType": "address payable",
          "name": "owner",
          "type": "address"
        },
        {
          "indexed": false,
          "internalType": "uint256",
          "name": "price",
          "type": "uint256"
        },
        {
          "indexed": false,
          "internalType": "bool",
          "name": "sold",
          "type": "bool"
        }
      ],
      "name": "MarketItemCreated",
      "type": "event"
    },
    {
      "inputs": [
        {
          "internalType": "address",
          "name": "nftContract",
          "type": "address"
        },
        {
          "internalType": "uint256",
          "name": "tokenId",
          "type": "uint256"
        },
        {
          "internalType": "uint256",
          "name": "price",
          "type": "uint256"
        }
      ],
      "name": "createMarketItem",
      "outputs": [],
      "stateMutability": "payable",
      "type": "function"
    },
    {
      "inputs": [
        {
          "internalType": "address",
          "name": "nftContract",
          "type": "address"
        },
        {
          "internalType": "uint256",
          "name": "itemId",
          "type": "uint256"
        }
      ],
      "name": "createMarketSale",
      "outputs": [],
      "stateMutability": "payable",
      "type": "function"
    },
    {
      "inputs": [],
      "name": "fetchItemsCreated",
      "outputs": [
        {
          "components": [
            {
              "internalType": "uint256",
              "name": "itemId",
              "type": "uint256"
            },
            {
              "internalType": "address",
              "name": "nftContract",
              "type": "address"
            },
            {
              "internalType": "uint256",
              "name": "tokenId",
              "type": "uint256"
            },
            {
              "internalType": "address payable",
              "name": "seller",
              "type": "address"
            },
            {
              "internalType": "address payable",
              "name": "owner",
              "type": "address"
            },
            {
              "internalType": "uint256",
              "name": "price",
              "type": "uint256"
            },
            {
              "internalType": "bool",
              "name": "sold",
              "type": "bool"
            }
          ],
          "internalType": "struct NFTMarketplace.MarketItem[]",
          "name": "",
          "type": "tuple[]"
        }
      ],
      "stateMutability": "view",
      "type": "function"
    },
    {
      "inputs": [],
      "name": "fetchMarketItems",
      "outputs": [
        {
          "components": [
            {
              "internalType": "uint256",
              "name": "itemId",
              "type": "uint256"
            },
            {
              "internalType": "address",
              "name": "nftContract",
              "type": "address"
            },
            {
              "internalType": "uint256",
              "name": "tokenId",
              "type": "uint256"
            },
            {
              "internalType": "address payable",
              "name": "seller",
              "type": "address"
            },
            {
              "internalType": "address payable",
              "name": "owner",
              "type": "address"
            },
            {
              "internalType": "uint256",
              "name": "price",
              "type": "uint256"
            },
            {
              "internalType": "bool",
              "name": "sold",
              "type": "bool"
            }
          ],
          "internalType": "struct NFTMarketplace.MarketItem[]",
          "name": "",
          "type": "tuple[]"
        }
      ],
      "stateMutability": "view",
      "type": "function"
    },
    {
      "inputs": [],
      "name": "fetchMyNFTs",
      "outputs": [
        {
          "components": [
            {
              "internalType": "uint256",
              "name": "itemId",
              "type": "uint256"
            },
            {
              "internalType": "address",
              "name": "nftContract",
              "type": "address"
            },
            {
              "internalType": "uint256",
              "name": "tokenId",
              "type": "uint256"
            },
            {
              "internalType": "address payable",
              "name": "seller",
              "type": "address"
            },
            {
              "internalType": "address payable",
              "name": "owner",
              "type": "address"
            },
            {
              "internalType": "uint256",
              "name": "price",
              "type": "uint256"
            },
            {
              "internalType": "bool",
              "name": "sold",
              "type": "bool"
            }
          ],
          "internalType": "struct NFTMarketplace.MarketItem[]",
          "name": "",
          "type": "tuple[]"
        }
      ],
      "stateMutability": "view",
      "type": "function"
    },
    {
      "inputs": [],
      "name": "getListingPrice",
      "outputs": [
        {
          "internalType": "uint256",
          "name": "",
          "type": "uint256"
        }
      ],
      "stateMutability": "view",
      "type": "function"
    },
    {
      "inputs": [
        {
          "internalType": "uint256",
          "name": "_listingPrice",
          "type": "uint256"
        }
      ],
      "name": "updateListingPrice",
      "outputs": [],
      "stateMutability": "payable",
      "type": "function"
    }
  ],
  "bytecode": "0x60806040526658d15e1762800060035534801561001b57600080fd5b506001600055600480546001600160a01b03191633179055610e88806100426000396000f3fe6080604052600436106100705760003560e01c806358eb2df51161004e57806358eb2df5146100d3578063ae677aa3146100e8578063c23b139e146100fb578063f064c32e1461010e57600080fd5b80630f08efe01461007557806312e85585146100a0578063202e3740146100be575b600080fd5b34801561008157600080fd5b5061008a610123565b6040516100979190610d5e565b60405180910390f35b3480156100ac57600080fd5b50600354604051908152602001610097565b3480156100ca57600080fd5b5061008a6102dd565b6100e66100e1366004610d14565b6104d5565b005b6100e66100f6366004610d46565b610807565b6100e6610109366004610ceb565b61087f565b34801561011a57600080fd5b5061008a610a9b565b6060600061013060015490565b9050600061013d60025490565b60015461014a9190610e0a565b90506000808267ffffffffffffffff81111561017657634e487b7160e01b600052604160045260246000fd5b6040519080825280602002602001820160405280156101af57816020015b61019c610c93565b8152602001906001900390816101945790505b50905060005b848110156102d45760006005816101cd846001610df2565b81526020810191909152604001600020600401546001600160a01b031614156102c2576000600581610200846001610df2565b81526020808201929092526040908101600090812054808252600580855291839020835160e0810185528154815260018201546001600160a01b0390811696820196909652600282015494810194909452600381015485166060850152600481015490941660808401529083015460a0830152600683015460ff16151560c083015285519093508590879081106102a757634e487b7160e01b600052603260045260246000fd5b60209081029190910101526102bd600186610df2565b945050505b806102cc81610e21565b9150506101b5565b50949350505050565b606060006102ea60015490565b905060008060005b8381101561034d57336005600061030a846001610df2565b81526020810191909152604001600020600401546001600160a01b0316141561033b57610338600184610df2565b92505b8061034581610e21565b9150506102f2565b5060008267ffffffffffffffff81111561037757634e487b7160e01b600052604160045260246000fd5b6040519080825280602002602001820160405280156103b057816020015b61039d610c93565b8152602001906001900390816103955790505b50905060005b848110156102d45733600560006103ce846001610df2565b81526020810191909152604001600020600401546001600160a01b031614156104c3576000600581610401846001610df2565b81526020808201929092526040908101600090812054808252600580855291839020835160e0810185528154815260018201546001600160a01b0390811696820196909652600282015494810194909452600381015485166060850152600481015490941660808401529083015460a0830152600683015460ff16151560c083015285519093508590879081106104a857634e487b7160e01b600052603260045260246000fd5b60209081029190910101526104be600186610df2565b945050505b806104cd81610e21565b9150506103b6565b6002600054141561052d5760405162461bcd60e51b815260206004820152601f60248201527f5265656e7472616e637947756172643a207265656e7472616e742063616c6c0060448201526064015b60405180910390fd5b60026000558061057f5760405162461bcd60e51b815260206004820152601c60248201527f5072696365206d757374206265206174206c65617374203120776569000000006044820152606401610524565b60035434146105dc5760405162461bcd60e51b8152602060048201526024808201527f5072696365206d75737420626520657175616c20746f206c697374696e6720706044820152637269636560e01b6064820152608401610524565b6105ea600180546001019055565b60006105f560015490565b90506040518060e00160405280828152602001856001600160a01b03168152602001848152602001336001600160a01b0316815260200160006001600160a01b0316815260200183815260200160001515815250600560008581526020019081526020016000206000820151816000015560208201518160010160006101000a8154816001600160a01b0302191690836001600160a01b031602179055506040820151816002015560608201518160030160006101000a8154816001600160a01b0302191690836001600160a01b0316021790555060808201518160040160006101000a8154816001600160a01b0302191690836001600160a01b0316021790555060a0820151816005015560c08201518160060160006101000a81548160ff021916908315150217905550905050836001600160a01b03166323b872dd3330866040518463ffffffff1660e01b8152600401610773939291906001600160a01b039384168152919092166020820152604081019190915260600190565b600060405180830381600087803b15801561078d57600080fd5b505af11580156107a1573d6000803e3d6000fd5b505060408051338152600060208201819052818301879052606082015290518693506001600160a01b038816925084917f045dfa01dcba2b36aba1d3dc4a874f4b0c5d2fbeb8d2c4b34a7d88c8d8f929d1919081900360800190a4505060016000555050565b6004546001600160a01b0316331461087a5760405162461bcd60e51b815260206004820152603060248201527f4f6e6c79206d61726b6574706c616365206f776e65722063616e20757064617460448201526f32903634b9ba34b73390383934b1b29760811b6064820152608401610524565b600355565b600260005414156108d25760405162461bcd60e51b815260206004820152601f60248201527f5265656e7472616e637947756172643a207265656e7472616e742063616c6c006044820152606401610524565b6002600081815582815260056020819052604090912090810154910154348214610966576040805162461bcd60e51b81526020600482015260248101919091527f506c65617365207375626d6974207468652061736b696e67207072696365206960448201527f6e206f7264657220746f20636f6d706c657465207468652070757263686173656064820152608401610524565b6000838152600560205260408082206003015490516001600160a01b03909116913480156108fc02929091818181858888f193505050501580156109ae573d6000803e3d6000fd5b506040516323b872dd60e01b8152306004820152336024820152604481018290526001600160a01b038516906323b872dd90606401600060405180830381600087803b1580156109fd57600080fd5b505af1158015610a11573d6000803e3d6000fd5b50505060008481526005602052604090206004810180546001600160a01b03191633179055600601805460ff1916600117905550610a53600280546001019055565b6004546003546040516001600160a01b039092169181156108fc0291906000818181858888f19350505050158015610a8f573d6000803e3d6000fd5b50506001600055505050565b60606000610aa860015490565b905060008060005b83811015610b0b573360056000610ac8846001610df2565b81526020810191909152604001600020600301546001600160a01b03161415610af957610af6600184610df2565b92505b80610b0381610e21565b915050610ab0565b5060008267ffffffffffffffff811115610b3557634e487b7160e01b600052604160045260246000fd5b604051908082528060200260200182016040528015610b6e57816020015b610b5b610c93565b815260200190600190039081610b535790505b50905060005b848110156102d4573360056000610b8c846001610df2565b81526020810191909152604001600020600301546001600160a01b03161415610c81576000600581610bbf846001610df2565b81526020808201929092526040908101600090812054808252600580855291839020835160e0810185528154815260018201546001600160a01b0390811696820196909652600282015494810194909452600381015485166060850152600481015490941660808401529083015460a0830152600683015460ff16151560c08301528551909350859087908110610c6657634e487b7160e01b600052603260045260246000fd5b6020908102919091010152610c7c600186610df2565b945050505b80610c8b81610e21565b915050610b74565b6040805160e081018252600080825260208201819052918101829052606081018290526080810182905260a0810182905260c081019190915290565b80356001600160a01b0381168114610ce657600080fd5b919050565b60008060408385031215610cfd578182fd5b610d0683610ccf565b946020939093013593505050565b600080600060608486031215610d28578081fd5b610d3184610ccf565b95602085013595506040909401359392505050565b600060208284031215610d57578081fd5b5035919050565b602080825282518282018190526000919060409081850190868401855b82811015610de557815180518552868101516001600160a01b039081168887015286820151878701526060808301518216908701526080808301519091169086015260a0808201519086015260c09081015115159085015260e09093019290850190600101610d7b565b5091979650505050505050565b60008219821115610e0557610e05610e3c565b500190565b600082821015610e1c57610e1c610e3c565b500390565b6000600019821415610e3557610e35610e3c565b5060010190565b634e487b7160e01b600052601160045260246000fdfea26469706673582212204764380df657e3c76c49db83dbbf48fbe2ba9f295cc7145d676dd3592405584e64736f6c63430008040033",
  "linkReferences": {},
  "deployedLinkReferences": {}
}